{
  "contractName": "UserAuth",
  "abi": [
    {
      "anonymous": false,
      "inputs": [
        {
          "indexed": true,
          "internalType": "address",
          "name": "user",
          "type": "address"
        }
      ],
      "name": "UserLoggedIn",
      "type": "event"
    },
    {
      "anonymous": false,
      "inputs": [
        {
          "indexed": true,
          "internalType": "address",
          "name": "user",
          "type": "address"
        }
      ],
      "name": "UserRegistered",
      "type": "event"
    },
    {
      "inputs": [],
      "name": "register",
      "outputs": [],
      "stateMutability": "nonpayable",
      "type": "function"
    },
    {
      "inputs": [
        {
          "internalType": "address",
          "name": "user",
          "type": "address"
        }
      ],
      "name": "isRegistered",
      "outputs": [
        {
          "internalType": "bool",
          "name": "",
          "type": "bool"
        }
      ],
      "stateMutability": "view",
      "type": "function",
      "constant": true
    },
    {
      "inputs": [],
      "name": "login",
      "outputs": [],
      "stateMutability": "nonpayable",
      "type": "function"
    }
  ],
  "bytecode": "0x608060405234801561001057600080fd5b5061049b806100206000396000f3fe608060405234801561001057600080fd5b50600436106100415760003560e01c80631aa3a00814610046578063b34e97e814610050578063c3c5a5471461005a575b600080fd5b61004e61008a565b005b6100586101b2565b005b610074600480360381019061006f91906102ec565b610282565b60405161008191906103a4565b60405180910390f35b6000803373ffffffffffffffffffffffffffffffffffffffff1673ffffffffffffffffffffffffffffffffffffffff16815260200190815260200160002060009054906101000a900460ff1615610116576040517f08c379a000000000000000000000000000000000000000000000000000000000815260040161010d906103df565b60405180910390fd5b60016000803373ffffffffffffffffffffffffffffffffffffffff1673ffffffffffffffffffffffffffffffffffffffff16815260200190815260200160002060006101000a81548160ff0219169083151502179055503373ffffffffffffffffffffffffffffffffffffffff167f54db7a5cb4735e1aac1f53db512d3390390bb6637bd30ad4bf9fc98667d9b9b960405160405180910390a2565b6000803373ffffffffffffffffffffffffffffffffffffffff1673ffffffffffffffffffffffffffffffffffffffff16815260200190815260200160002060009054906101000a900460ff1661023d576040517f08c379a0000000000000000000000000000000000000000000000000000000008152600401610234906103bf565b60405180910390fd5b3373ffffffffffffffffffffffffffffffffffffffff167f8d15fde878cff665868ed7579eb5081db6508d4249df61dcdd7699a5301d987460405160405180910390a2565b60008060008373ffffffffffffffffffffffffffffffffffffffff1673ffffffffffffffffffffffffffffffffffffffff16815260200190815260200160002060009054906101000a900460ff169050919050565b6000813590506102e68161044e565b92915050565b6000602082840312156102fe57600080fd5b600061030c848285016102d7565b91505092915050565b61031e81610422565b82525050565b60006103316013836103ff565b91507f55736572206e6f742072656769737465726564000000000000000000000000006000830152602082019050919050565b60006103716017836103ff565b91507f5573657220616c726561647920726567697374657265640000000000000000006000830152602082019050919050565b60006020820190506103b96000830184610315565b92915050565b600060208201905081810360008301526103d881610324565b9050919050565b600060208201905081810360008301526103f881610364565b9050919050565b600082825260208201905092915050565b600061041b8261042e565b9050919050565b60008115159050919050565b600073ffffffffffffffffffffffffffffffffffffffff82169050919050565b61045781610410565b811461046257600080fd5b5056fea26469706673582212201211f592223863ffb70832d442d96645bcbdf1cc3f7771a4e8981d7918e07c9b64736f6c63430008000033",
  "immutableReferences": {},
  "source": "// SPDX-License-Identifier: MIT\r\npragma solidity ^0.8.0;\r\n\r\ncontract UserAuth {\r\n    mapping(address => bool) private registeredUsers;\r\n    event UserRegistered(address indexed user);\r\n    event UserLoggedIn(address indexed user);\r\n\r\n    function register() public {\r\n        require(!registeredUsers[msg.sender], \"User already registered\");\r\n        registeredUsers[msg.sender] = true;\r\n        emit UserRegistered(msg.sender);\r\n    }\r\n\r\n    function isRegistered(address user) public view returns (bool) {\r\n        return registeredUsers[user];\r\n    }\r\n\r\n    function login() public {\r\n        require(registeredUsers[msg.sender], \"User not registered\");\r\n        emit UserLoggedIn(msg.sender);\r\n    }\r\n}",
  "sourcePath": "D:\\Flutter Project\\FYP\\contracts\\UserAuth.sol",
  "compiler": {
    "name": "solc",
    "version": "0.8.0+commit.c7dfd78e.Emscripten.clang"
  },
  "schemaVersion": "3.4.16",
  "updatedAt": "2025-05-08T08:23:38.674Z",
  "networkType": "ethereum",
  "devdoc": {
    "kind": "dev",
    "methods": {},
    "version": 1
  },
  "userdoc": {
    "kind": "user",
    "methods": {},
    "version": 1
  }
}